:100000000C945D000C94431B0C941C1B0C948500F9
:100010000C9485000C9485000C9485000C9485004C
:100020000C9485000C9485000C9485000C9485003C
:100030000C9485000C9411100C9485000C94850090
:100040000C94D21A0C9485000C94DF0F0C94B90F09
:100050000C9485000C9485000C9485000C9485000C
:100060000C9485000C9485000000000025002800F9
:100070002B0000000000240027002A0001020408D1
:100080001020408001020408102001020408102002
:10009000040404040404040402020202020203032E
:1000A000030303030000000800020100000304072B
:1000B0000000000000000000871E11241FBECFEFCB
:1000C000D8E0DEBFCDBF13E0A0E0B1E0E8E1F5E4A9
:1000D00002C005900D92A43AB107D9F724E0A4EA32
:1000E000B3E001C01D92A73DB207E1F710E0CDE5F6
:1000F000D0E004C02197FE010E946422CC35D107D4
:10010000C9F70E94951C0C948A220C940000089553
:10011000CF93DF931F92CDB7DEB76983DC01ED91FA
:10012000FC910280F381E02D41E050E0BE016F5F61
:100130007F4F09950F90DF91CF910895FC01818D3C
:10014000928D0895CF93DF931F92CDB7DEB7698369
:10015000DC01ED91FC910280F381E02D41E050E063
:10016000BE016F5F7F4F09950F90DF91CF9108958A
:10017000FC019485FB018485981303C081E09430D1
:1001800008F080E00895CF93DF931F92CDB7DEB7DC
:100190006983DC01ED91FC910280F381E02D41E067
:1001A00050E0BE016F5F7F4F09950F90DF91CF91B7
:1001B0000895FC01768765870895DC01ED91FC9137
:1001C000068CF78DE02D099591E089270895862FFB
:1001D000089581E08627089521E0FC01848584301C
:1001E00008F020E0822F0895FC018485958508950C
:1001F000FC0184899589089526E931E0FC01318369
:100200002083FB014089518962897389FC01428303
:100210005383648375830895DC01ED91FC91048C14
:10022000F58DE02D099480E008958091E10390918F
:10023000E20301969093E2038093E1038091E1034E
:100240009091E203059721F56091E3037091E40337
:100250008091E5039091E6030E94342126E636E67C
:1002600046E65FE30E94EB216093EB037093EC039F
:100270008093ED039093EE031092E3031092E40356
:100280001092E5031092E6031092E2031092E1034C
:100290000895089580E090E00895CF92DF92EF9264
:1002A000FF920F931F93CF93DF9300D000D000D025
:1002B000CDB7DEB78C016B017A01FC01808D8430F3
:1002C00010F40E94901486E991E09A838983F601E4
:1002D00082819381A481B5818B839C83AD83BE830E
:1002E000B701CE0101960E942E16F801808F84304E
:1002F00030F4F586E486128E118E81E001C080E034
:1003000026960FB6F894DEBF0FBECDBFDF91CF911A
:100310001F910F91FF90EF90DF90CF900895CF93B2
:10032000DF93FC01808D843028F4EF010E9490144B
:1003300084E0888FDF91CF910895FC01808D843017
:1003400040F4218D328D232B21F00E943C1390E04C
:1003500008958FEF9FEF0895CF93DF93FC012485DD
:10036000243018F08FEF9FEF0EC0EC010190F08168
:10037000E02D0084F185E02D0995892B99F38C857A
:100380000E943C1390E0DF91CF910895CF93DF93CB
:10039000FC01218D328D2115310519F48FEF9FEF6E
:1003A00011C0EC014217530708F0A901888D0E9483
:1003B0009F131816190694F7298D3A8D281B390BAF
:1003C0003A8F298FDF91CF9108950F931F93CF9389
:1003D000DF931F92CDB7DEB7FC01218D328D232B29
:1003E00061F08C0141E050E0BE016F5F7F4F808D76
:1003F0000E949F13181619061CF08FEF9FEF08C07C
:10040000F801818D928D0197928F818F898190E083
:100410000F90DF91CF911F910F910895CF93DF93AC
:100420001F92CDB7DEB741E050E0BE016F5F7F4F56
:10043000FC0184850E949F13181619061CF48981FB
:1004400090E002C08FEF9FEF0F90DF91CF91089562
:10045000FC018485843010F40C949F1380E090E0BC
:100460000895FC018485843010F40C94691380E0B5
:1004700090E008950F931F93CF93DF93CDB7DEB72E
:1004800028970FB6F894DEBF0FBECDBF8C01D80100
:1004900059964D915C915A974115510551F0ED9146
:1004A000FC91048CF58DE02D60E070E0C8010995A9
:1004B000EECFF801808D0E946913892B51F148E03D
:1004C00050E0BE016F5F7F4FD80158968C910E941B
:1004D0009F1318161906FCF4D801509684E0FE010B
:1004E000319601900D928A95E1F78D8190E0982FD9
:1004F00088272E81820F911DF801958B848B8F8127
:1005000090E0982F88272885820F911D928F818FE8
:1005100002C080E090E028960FB6F894DEBF0FBED0
:10052000CDBFDF91CF911F910F910895AF92BF92F0
:10053000CF92DF92EF92FF920F931F93CF93DF93AF
:10054000CDB7DEB7AF970FB6F894DEBF0FBECDBF05
:100550008C015B016A01CE0101960E940E1686E9AC
:10056000E82E81E0F82EFBA6EAA61CA61DA61EA674
:100570001FA68091910490919204A0919304B09150
:1005800094048EA39FA3A8A7B9A78B839C83AD8354
:10059000BE8318861F82AE01465D5F4FB501CE0156
:1005A00001960E94721881309105B1F4D801ED9145
:1005B000FC910488F589E02DFDA2ECA28CA59DA5F7
:1005C000AEA5BFA58EA39FA3A8A7B9A7A601BE01EC
:1005D0006C5D7F4FC8010995AF960FB6F894DEBFEA
:1005E0000FBECDBFDF91CF911F910F91FF90EF9084
:1005F000DF90CF90BF90AF9008950F931F93CF934C
:10060000DF93EC018B01888D843010F40E949014EC
:100610008091AF03882329F0B80182E00E94F21490
:1006200001C084E0888F843030F41D870C871A8ED7
:10063000198E81E001C080E0DF91CF911F910F9171
:1006400008950F931F93CF93DF93FC01848584302B
:1006500068F4C52FD42F8F010E94C312009749F46C
:1006600021E030E0F8013383228305C080E090E090
:1006700002C08D2F9C2FDF91CF911F910F91089574
:10068000EF92FF920F931F93CF937C0107ED13E03E
:10069000C0E0F801219131918F01F70184819581AA
:1006A0002817390729F0CF5FC43099F780E006C0DA
:1006B0008C2F0E94AC148431B1F781E0CF911F914F
:1006C0000F91FF90EF900895CF93DF93EC018C850D
:1006D0008430C8F40E94AC14843181F0882371F016
:1006E000883161F08C3161F4E881F9810084F18511
:1006F000E02DCE01099521E0892B19F420E001C0FD
:1007000021E0822F01C080E0DF91CF910895CF9248
:10071000DF92EF92FF920F931F93CF93DF93CDB7AA
:10072000DEB7AF970FB6F894DEBF0FBECDBF8C011A
:100730006B017A01CE0101960E940E1686E991E0C6
:100740009BA78AA71CA61DA61EA61FA6D8011C969D
:100750008C91843060F40E94AC14882321F0F8015D
:1007600084850E94741484E0D8011C968C93809137
:10077000910490919204A0919304B09194048EA35B
:100780009FA3A8A7B9A78B839C83AD83BE8318863C
:100790001F82AE01465D5F4FB601CE0101960E94F9
:1007A00072180097C1F0D801ED91FC910684F7858D
:1007B000E02D86E991E09DA38CA38CA59DA5AEA517
:1007C000BFA58EA39FA3A8A7B9A7A701BE016C5D73
:1007D0007F4FC8010995AF960FB6F894DEBF0FBEE4
:1007E000CDBFDF91CF911F910F91FF90EF90DF90E0
:1007F000CF9008950F931F930E9466180091A8034D
:100800001091A9032091AA033091AB03DC01CB0125
:10081000801B910BA20BB30B4097A105B105E8F02B
:100820008091E3039091E403A091E503B091E60386
:100830000196A11DB11D8093E3039093E403A0935F
:10084000E503B093E6030E9466186093A8037093D3
:10085000A9038093AA039093AB031F910F9108956E
:100860000F931F930E9466180091A4031091A50393
:100870002091A6033091A703DC01CB01801B910BD3
:10088000A20BB30B4097A105B105E8F08091E703F7
:100890009091E803A091E903B091EA030196A11DAC
:1008A000B11D8093E7039093E803A093E903B0930D
:1008B000EA030E9466186093A4037093A5038093D3
:1008C000A6039093A7031F910F910895CF92DF92F3
:1008D000EF92FF92CF93DF93EC018C85843038F553
:1008E0000E9474140E9466186B017C018C850E9422
:1008F000AC148823D1F061E070E080E090E00E94C9
:100900002C180E946618AB01BC014C195D096E09D8
:100910007F098D859E85A0E0B0E0481759076A07DA
:100920007B0720F38C850E94901484E08C87DF91F4
:10093000CF91FF90EF90DF90CF900895CF93DF930A
:10094000EC018C85843060F40E94AC14873111F086
:100950008C3131F48C850E9496128115984088F371
:10096000DF91CF910895FC018485843010F40C94BC
:10097000961280E090E00895DA019091B003E92F9B
:10098000F0E0FE2FEE27E60FF71F90E0982F882764
:10099000A901BD018E0F9F1F0C94DF10CF93DF9331
:1009A0001F92CDB7DEB79091B003292F30E0322FE0
:1009B0002227260F371F90E0982F8827498341E090
:1009C00050E0BE016F5F7F4F820F931F0E94DF10C8
:1009D0000F90DF91CF910895CF93DF931F92CDB702
:1009E000DEB79091B003292F30E0322F2227260F57
:1009F000371F90E0982F882741E050E0BE016F5FDD
:100A00007F4F820F931F0E94521089810F90DF91B8
:100A1000CF91089563E070E00C94EC04AF92BF9224
:100A2000CF92DF92EF92FF920F931F93CF93DF93BA
:100A3000EC016B018091AF03811111C01B821A82FE
:100A400088EE93E0A0E0B0E08C839D83AE83BF830B
:100A500084E191E09983888384E08C874FC087ED9F
:100A6000E82E83E0F82E10E094E0B92EA12CD701F7
:100A70002D913C91F6018481958128173907F9F46D
:100A8000812F0E94AC14082F873111F08C3159F45A
:100A9000812F0E946913892B71F40C3181F4812F0D
:100AA0000E9474140CC0843141F0811108C0D70138
:100AB0001D921C9204C0B12E02C0AA24A3941F5FF1
:100AC000B2E0EB0EF11C143091F6A11008C0D60173
:100AD000ED91FC910084F185E02DC60109951B8202
:100AE0001A8288EE93E0A0E0B0E08C839D83AE8311
:100AF000BF8384E191E099838883BC8688EE93E08C
:100B00009E878D87CE01DF91CF911F910F91FF902E
:100B1000EF90DF90CF90BF90AF9008958F929F920B
:100B2000AF92BF92CF92DF92FF920F931F93CF931A
:100B3000DF93CDB7DEB72F970FB6F894DEBF0FBEA9
:100B4000CDBF2091AF03222339F18A015B016C01F3
:100B5000BC01CE0101960E940E0587ED882E83E030
:100B6000982EF12CF401219131914F01F6018481ED
:100B700095812817390751F48F2D0E94AC148731C5
:100B800029F4A801B5018F2D0E94C312F394F4E05B
:100B9000FF12E8CFC80102C080E090E02F960FB6A8
:100BA000F894DEBF0FBECDBFDF91CF911F910F91A3
:100BB000FF90DF90CF90BF90AF909F908F9008955F
:100BC000DA019091B003E92FF0E0FE2FEE27E60F57
:100BD000F71F90E0982F8827A901BD018E0F9F1F56
:100BE0000C94521008958CBD9DBD08957F928F92F4
:100BF0009F92AF92BF92CF92DF92EF92FF920F93AC
:100C00001F93CF93DF9300D0CDB7DEB77C014B01AC
:100C1000742EC52EFC01A688B788D08CCE01019613
:100C20000E948F1C89819A810E94F3058D2D0E945C
:100C30005A12072D1C2D8017910708F48C0198017A
:100C4000A401B5018D2D0E94DB11F70186899789DA
:100C5000800F911F978B868BC8010F900F90DF91AB
:100C6000CF911F910F91FF90EF90DF90CF90BF90A9
:100C7000AF909F908F907F9008951F93CF93DF93B5
:100C800000D0CDB7DEB7FC01108DCE0101960E94D9
:100C90008F1C89819A810E94F30560E270E0812FA8
:100CA0000E94381062E070E0812F0E94EC0484FD05
:100CB00018C062E070E0812F0E94EC0483FF08C03E
:100CC00048E162E070E0812F0E94CE0480E010C015
:100CD000CE0101960E948F1C89819A810E94F305A2
:100CE000E1CF40E162E070E0812F0E94CE0481E01C
:100CF00090E00F900F90DF91CF911F910895DF92B8
:100D0000EF92FF920F931F93CF93DF9300D0CDB755
:100D1000DEB7FB01DC0157961C921E92569722818A
:100D2000211109C02381211106C02481211103C092
:100D300025812223F9F041155105E1F07A018F0157
:100D4000FC01D08CCE0101960E948F1C89819A8172
:100D50000E94F305A8014E5F5F4F24E030E06CE095
:100D600070E08D2D0E94BC04B7018D2D0E94C81427
:100D700081E001C080E090E00F900F90DF91CF9173
:100D80001F910F91FF90EF90DF900895EF92FF92E7
:100D90001F93CF93DF9300D0CDB7DEB72091AF0381
:100DA000222359F17C01FC016481758181E20E945A
:100DB000F214182F843008F5CE0101960E948F1C82
:100DC00089819A810E94F305812F0E940A0583314F
:100DD00089F462E070E0812F0E943810F70184816D
:100DE0009581E12FF0E0EE0FFF1FE952FC4F918358
:100DF000808303C0812F0E9474140F900F90DF91A5
:100E0000CF911F91FF90EF9008950F931F93CF9371
:100E1000DF9300D0CDB7DEB7FC0124852430D0F4B9
:100E20008C01CE0101960E948F1C89819A810E94BB
:100E3000F30522E030E0AE014F5F5F4F60E170E00C
:100E4000F80184850E94E00589819A819827892785
:100E5000982702C080E090E00F900F90DF91CF9133
:100E60001F910F9108950F931F93CF93DF9300D09D
:100E7000CDB7DEB7FC0124852430D0F48C01CE013F
:100E800001960E948F1C89819A810E94F30522E0BD
:100E900030E0AE014F5F5F4F64E070E0F8018485A1
:100EA0000E94E00589819A8198278927982702C0A6
:100EB00080E090E00F900F90DF91CF911F910F9104
:100EC0000895AF92BF92CF92DF92EF92FF920F936D
:100ED0001F93CF93DF9300D0CDB7DEB78C016B01AA
:100EE0005A01FC018485843058F40E94AC14882394
:100EF00021F0F80184850E94741484E0F80184874D
:100F0000F60182819381A481B5810097A105B10585
:100F100009F462C08F3F9F4FAF4FBF4F09F45CC0D1
:100F20008091AF03882339F060E070E081E20E9495
:100F3000F214F82E02C084E0F82EF801F486F3E0F3
:100F4000FF1508F449C0CE0101960E948F1C8981CB
:100F50009A810E94F305A6014E5F5F4F24E030E0C6
:100F60006CE070E08F2D0E94BC04B5018F2D0E94B3
:100F7000C81464E070E08F2D0E9438100E9466183B
:100F80006B017C01F80184850E94AC14873139F132
:100F90008C3129F1882301F10E946618AB01BC0154
:100FA0004C195D096E097F09F80185859685A0E0D9
:100FB000B0E084179507A607B70738F061E070E046
:100FC00080E090E00E942C18DDCFF80184850E941B
:100FD000901484E0F801848780E090E002C081E012
:100FE00090E00F900F90DF91CF911F910F91FF90A4
:100FF000EF90DF90CF90BF90AF900895EF92FF9267
:101000000F931F93CF93DF9300D000D0CDB7DEB7FF
:101010008C017B01FB018485843050F086E991E0EE
:10102000F80191838083128213821482158219C081
:10103000CE0101960E948F1C89819A810E94F3053E
:1010400024E030E0AE014F5F5F4F6CE070E0F701ED
:1010500084850E94E005BE016F5F7F4FC8010E943A
:10106000AD0FC8010F900F900F900F90DF91CF91AF
:101070001F910F91FF90EF90089520E3FC012083D2
:101080003296862F82958F7090E1899F6019112486
:101090006A3014F4605D01C0695C6293682F81114D
:1010A000F0CF08957F928F929F92AF92BF92CF928E
:1010B000DF92EF92FF920F931F93CF93DF93CDB701
:1010C000DEB7A6970FB6F894DEBF0FBECDBF8C017A
:1010D000762E942E852E20E2B22ECE0101967C0132
:1010E000FC012B2D11922A95E9F786E991E09AA34C
:1010F00089A38FEF8BA38CA38DA38EA3680183E4B8
:10110000C80ED11C43E450E0BE016F5D7F4FC601A5
:101110000E947F06019609F4B9C081E089838A8321
:1011200086E0A82EAB821C82F801648175818681DD
:1011300097810E945D226D837E838F839887898645
:101140009A8680E890E09C878B874CE150E0B7015D
:10115000C6010E94F605F7012B2D11922A95E9F799
:10116000480188E0880E911CF401D70101900D928E
:10117000AA94E1F740E150E0B701C6010E94F605EC
:10118000F7011192BA94E9F796E0A92EB12C40E24A
:1011900050E0B701C6010E94F605F1E0AF1AB108B0
:1011A000B1F783E6898392E89A8393E59B838C83E6
:1011B00085E38D8381E08E837F829DE3988797E02E
:1011C00099878A8786E0F401DE011B9601900D92D3
:1011D0008A95E1F78CE0898B8A8B6AEB71E0CE010E
:1011E00043960E948322F8016385CE0149960E94AE
:1011F0003D08F8016485CE014B960E943D08F80138
:101200006585CE014D960E943D084EE150E0B70144
:10121000C6010E94F605F3E07F121EC082E38983B7
:1012200084E08A83F80196859B8397859C839089C7
:101230009D8391899E8396E39F838887828D89878A
:10124000838D8A87848D8B87858D8C874CE050E0D9
:10125000B701C6010E94F60587E3898386E08A8389
:1012600091E09B8393E09C838D838FE08E838AE360
:101270008F838BE388878FEF898749E050E0B70140
:10128000C6010E94F605C6010E943D06A6960FB64D
:10129000F894DEBF0FBECDBFDF91CF911F910F91AC
:1012A000FF90EF90DF90CF90BF90AF909F908F9086
:1012B0007F900895CF92DF92EF92FF920F931F934A
:1012C000CF93DF93CDB7DEB7C654D1090FB6F894EC
:1012D000DEBF0FBECDBFFC0182819381A481B581A9
:1012E00023968CAF9DAFAEAFBFAF239721E023967F
:1012F0002FAF239723964CAD5DAD6EAD7FAD239799
:101300004BAB5CAB6DAB7EAB89AF9AAFABAFBCAF59
:101310008DA79EA7AFA7B8AB28AB4DA55EA56FA5BF
:1013200078A94FA358A769A77AA72EAB4BA95CA9A8
:101330006DA97EA949A35AA36BA37CA38B8F9C8F15
:10134000AD8FBE8F46E951E05C8B4B8B3FEF3D8B01
:101350003E8B3F8B188E5E874D872AA7CFA0D8A4DF
:10136000E9A4FAA4CF86D88AE98AFA8A2CA309A12B
:101370001AA12BA13CA109871A872B873C875A8386
:1013800049838B839C83AD83BE838091B20381119B
:101390001EC160E372E080E090E00E942C181FB74D
:1013A000F8948091B103811127C0EAE9F0E08491BB
:1013B000E6E8F0E09491E82FF0E0EE0FFF1FEE5822
:1013C000FF4FA591B491EC91E92321F461E08AE00B
:1013D0000E94A31761E08AE00E94F0178CB580613B
:1013E0008CBD8CB580648CBD61E08DE00E94F017EF
:1013F00061E08BE00E94F0178091B1038F5F8093D2
:10140000B1031FBFEAE9F0E0E491F0E0EE0FFF1F47
:10141000E859FF4F859194919093AE038093AD036B
:10142000E6E8F0E0E491E093AC0361E08AE00E943A
:10143000F0170E944810CE018D5B9F4F0E948F1CB9
:1014400025968EAD9FAD25970E94F30584E380938A
:10145000AF030E94C211882319F188E00E94AF11E6
:101460000E949C118830E1F480E10E94AF110E943B
:101470009C118031A9F480E00E94AF110E949C1160
:1014800081110EC041E050E0BE016D5B7F4F8FE1E6
:1014900090E00E94521024968FAD24978330B1F1D2
:1014A00087E38093AF030E94C211882309F451C0DF
:1014B00088E00E94AF110E949C11883009F049C059
:1014C00080E10E94AF110E949C11182F803109F019
:1014D00040C080E00E94AF110E949C11811139C070
:1014E00041E050E0BE016D5B7F4F89E390E00E94D8
:1014F000521024968FAD2497843059F51093B00381
:101500000E94F20581E08093B20361C080E4809381
:10151000B00310E042E06EE170E0812F0E94CE0443
:1015200042E06FE170E0812F0E94CE041F5F143013
:1015300089F740E06EE170E0812F0E94CE0440E028
:101540006FE170E0812F0E94CE041F5F183089F791
:10155000D7CF83E38093AF030E94C211882391F118
:1015600080E10E94AF110E949C11803159F582E107
:101570000E94AF110E949C11823121F580E00E94EF
:10158000AF110E949C1181111DC084E08093B003B3
:1015900015E527961FAF279741E050E0BE016A5B33
:1015A0007F4F8BE190E00E94DF1026961FAF2697B9
:1015B00041E050E0BE016B5B7F4F8AE190E00E940A
:1015C000DF109ECF1092AF030E94F2053EC0CE0105
:1015D0008D5B9F4F0E948F1C25968EAD9FAD2597EA
:1015E0000E94F30546E050E060E071E089E090E0A1
:1015F0000E94DF1044E050E0BE016D5F7F4F8FE03E
:1016000090E00E94DF1044E050E0BE01615F7F4F38
:1016100081E090E00E94DF1044E050E0BE016B5E8C
:101620007F4F85E090E00E94DF100E94F20581E08C
:101630008C8789859A85AB85BC858093910490932E
:101640009204A0939304B0939404CA5BDF4F0FB647
:10165000F894DEBF0FBECDBFDF91CF911F910F91E8
:10166000FF90EF90DF90CF900895CF92DF92EF92AE
:10167000FF920F931F93CF93DF936B01770FEE08C9
:10168000FF08F7FE1BC0EC016DE20E94350F8C01D4
:1016900044275527BA014C195D096E097F092AE0D4
:1016A000CE010E946A1B800F911FDF91CF911F9185
:1016B0000F91FF90EF90DF90CF9008952AE0B7014F
:1016C000A601DF91CF911F910F91FF90EF90DF90D6
:1016D000CF900C946A1B2F923F924F925F926F9221
:1016E0007F928F929F92AF92BF92CF92DF92EF92B2
:1016F000FF920F931F93CF93DF93CDB7DEB7E99798
:101700000FB6F894DEBF0FBECDBF7C014A015B016E
:1017100019010E9466182B013C0187010D5B1F4FC8
:10172000C8010E943A0218161906A4F00E94661811
:10173000DC01CB0184199509A609B7098816990619
:10174000AA06BB06D8F062E370E080E090E00E9459
:101750002C18E6CF42E250E0BE016F5F7F4FC80118
:101760000E94C6018981823011F080E035C1F80104
:101770008489958983349105C1F702C08FEF2CC10C
:101780006D817E818F8198850E945D222B013C01B5
:10179000F101608371838283938346E050E0B70157
:1017A000685F7F4FCE014D960E946F22892BE9F62C
:1017B000F70180819181A281B381481659066A069A
:1017C0007B0698F284819581A681B7818415950561
:1017D000A605B70550F289899A89AB89BC898687A5
:1017E0009787A08BB18B4EEC50E060E070E0C801B1
:1017F0000E94C6011FA66701F2E2CF0ED11CC701ED
:10180000869699AB88ABF701BA96FBABEAAB47017A
:10181000FAE18F0E911C8D969DAB8CABF701729601
:10182000FFABEEABCD9799AF88AF17019EE1290EC4
:10183000311CF801818D928D181619060CF0CBC061
:10184000C8010E94E5018333910509F4A5C0ACF4F9
:101850008130910569F11CF4892B59F3B6C08330AE
:10186000910571F1069709F0B0C0C8010E94E50129
:101870005C0144E050E0B1012BC08A33910509F4CA
:101880005FC034F48533910559F0C69771F19DC05E
:101890008B33910509F46AC08F3F910551F295C0D1
:1018A000C8010E94E501C8010E94E5018FA7C1CFD0
:1018B000C8010E94E50144E050E06EA97FA911C073
:1018C000C8010E94E5015C0144E050E068AD79ADDB
:1018D000C8010E94C601A50155274450510960E086
:1018E00070E0C8010E94C601A4CFC8010E94E501B2
:1018F0005C01B401CE0183960E94AD0F8DA19EA123
:10190000AFA1B8A5892B8A2B8B2BA1F0ECA9FDA93F
:101910004080518062807380B401CE0189960E941C
:10192000AD0F8BA59CA5ADA5BEA584159505A605F7
:10193000B70521F444E050E0B401D3CFA50149C07C
:10194000C8010E94E50144E050E068A979A9C801F6
:101950000E94C601F70166A177A180A591A50E940A
:101960005D2266A377A380A791A763CFC8010E94D9
:10197000E50144E050E06AA97BA9C8010E94C601C4
:10198000F70162A573A584A595A50E945D2262A7B3
:1019900073A784A795A74DCFC8010E94E50144E035
:1019A00050E0B601C8010E94C601F70162A173A10F
:1019B00084A195A10E945D2262A373A384A395A331
:1019C00066A777A780AB91AB34CFC8010E94E50131
:1019D000AC01552784CF8FA5E9960FB6F894DEBFEA
:1019E0000FBECDBFDF91CF911F910F91FF90EF9070
:1019F000DF90CF90BF90AF909F908F907F906F902F
:101A00005F904F903F902F9008952F923F924F926A
:101A10005F926F927F928F929F92AF92BF92CF927E
:101A2000DF92EF92FF920F931F93CF93DF9300D03B
:101A300000D000D0CDB7DEB78C010E94671F2FEC1D
:101A400037E040E050E00E94BE1FDC01CB01019670
:101A5000A11DB11DF80184839583A683B78380837C
:101A60009183A283B3835801F3E4AF0EB11CC50187
:101A70000E948F0164E470E0C5010E94FD0288238A
:101A800009F436C10E9466182B013C01812C912C6F
:101A9000C8018E5B9F4F9E838D8348EEC42E43E02A
:101AA000D42EE12CF12C52E0252EAD81BE818C91FB
:101AB000833009F404C1811120C0F801848195812B
:101AC000A681B7810196A11DB11D84839583A6834C
:101AD000B7830E9466186419750986099709A701DA
:101AE00096010E94F01FA90161E0C8010E945208FE
:101AF00081E0AD81BE818C93CAC08430F9F4F801D5
:101B000084819581A681B7810196A11DB11D848331
:101B10009583A683B7830E946618641975098609A0
:101B20009709A70196010E94F01FA90163E0C8016F
:101B30000E945208AD81BE812C92A9C0813059F516
:101B4000F80142AD53AD64AD75AD9E012F5F3F4FBF
:101B5000C8010E946B0B382EF2E08F1392C089816E
:101B60009A81AB81BC81F80184839583A683B78376
:101B70000E9466186419750986099709A7019601DC
:101B80000E94F01FA90163E0C8010E945208AD81C4
:101B9000BE813C927CC0823009F079C0F80142AD30
:101BA00053AD64AD75AD9E012F5F3F4FC8010E94DC
:101BB0006B0B382EF5E08F135DC0E3E0AD81BE8185
:101BC000EC93F80182A193A1A4A1B5A1892B8A2B42
:101BD0008B2B41F484E893E0A0E0B0E082A393A3D0
:101BE000A4A3B5A3F80186A197A1A0A5B1A5892BAF
:101BF0008A2B8B2B61F482A193A1A4A1B5A1B695E8
:101C0000A7959795879586A397A3A0A7B1A7F80155
:101C100082A593A5A4A5B5A5892B8A2B8B2BA9F406
:101C200082A193A1A4A1B5A1AC01BD0123E0769549
:101C30006795579547952A95D1F7841B950BA60B69
:101C4000B70B82A793A7A4A7B5A7F80186A197A170
:101C5000A0A5B1A586A797A7A0ABB1AB82A593A578
:101C6000A4A5B5A582AB93ABA4ABB5AB88248394F4
:101C7000912C0DC0F6E08F1304C0AD81BE811C9283
:101C800006C0BFEF3B1203C0ED81FE811082F1E080
:101C90008F16910409F409CF0E946618DC01CB016C
:101CA00084199509A609B709F80126A937A940ADF5
:101CB00051AD281739074A075B0708F0F6CEC50172
:101CC0000E948F01F80184819581A681B7810196D8
:101CD000A11DB11D84839583A683B7830E946618D6
:101CE000F801FE966083718382839383C40102C0EE
:101CF00080E090E026960FB6F894DEBF0FBECDBF11
:101D0000DF91CF911F910F91FF90EF90DF90CF90D7
:101D1000BF90AF909F908F907F906F905F904F900B
:101D20003F902F900895CF92DF92EF92FF920F9302
:101D30001F93CF93DF936C017A018B01C0E0D0E059
:101D4000CE15DF0581F0D8016D918D01D601ED91A1
:101D5000FC910190F081E02DC6010995892B11F0CD
:101D60002196EECF7E01C701DF91CF911F910F9198
:101D7000FF90EF90DF90CF900895FC0120812EBD61
:101D80009B012150310941F051810DB407FEFDCF77
:101D90004EB55EBD4193F5CF61507109FC01E60F70
:101DA000F71F0DB407FEFDCF8EB580830895E09137
:101DB000AD03F091AE0390818091AC0380958923AF
:101DC000808308958EBD00000DB407FEFDCF8EB553
:101DD00008952091AF0390E0233311F40C9601C0D5
:101DE0004896982F990F990F990F80E0089582EFE8
:101DF00093E00E94D31521E0892B09F420E0822F83
:101E00000895FF920F931F93CF93DF9300D0CDB728
:101E1000DEB7F82E22E030E0AE014F5F5F4F66E2A2
:101E200070E00E94E00509811A8110270127102720
:101E300022E030E0AE014F5F5F4F66E270E08F2D31
:101E40000E94E00589819A81982789279827081799
:101E5000190711F08C01ECCFC8010F900F90DF91A2
:101E6000CF911F910F91FF900895DC01ED91FC91AE
:101E70000190F081E02D09948F929F92AF92BF92D2
:101E8000CF92DF92EF92FF920F931F93CF93DF9346
:101E90007C018B016C0182E0C80ED11C4701E5E09A
:101EA0008E0E911CC0E0D0E0F60141916F0150E030
:101EB00060E070E02AE0C8010E946A1B5C016EE2EB
:101EC000C8010E94350F8A0D9B1DC80FD91FC81469
:101ED000D90451F7F701458150E060E070E02AE055
:101EE000C8010E946A1B8C0F9D1FDF91CF911F912B
:101EF0000F91FF90EF90DF90CF90BF90AF909F90A9
:101F00008F9008956115710579F0FB010190002013
:101F1000E9F73197AF01461B570BDC01ED91FC91BE
:101F20000280F381E02D099480E090E008950F9302
:101F30001F93CF93DF93EC010E94820F8C0161EC21
:101F400071E0CE010E94820F800F911FDF91CF912F
:101F50001F910F9108950C94820FDC0186E991E0A6
:101F60008D939D9384E0FB0101900D928A95E1F79A
:101F700008951F920F920FB60F9211242F933F9343
:101F80004F935F936F937F938F939F93AF93BF9381
:101F9000EF93FF9382EF93E00E941217FF91EF916E
:101FA000BF91AF919F918F917F916F915F914F9171
:101FB0003F912F910F900FBE0F901F9018951F9279
:101FC0000F920FB60F9211242F938F939F93EF933D
:101FD000FF93E0910204F09103048081E0910804F2
:101FE000F091090482FD12C0908180910B048F5FF3
:101FF0008F7320910C04821751F0E0910B04F0E0F4
:10200000EE50FC4F958F80930B0401C08081FF91AF
:10201000EF919F918F912F910F900FBE0F901F9076
:1020200018951F920F920FB60F9211242F933F9382
:102030004F935F936F937F938F939F93AF93BF93D0
:10204000EF93FF93E091DF03F091E0030995FF9197
:10205000EF91BF91AF919F918F917F916F915F9120
:102060004F913F912F910F900FBE0F901F90189599
:10207000CF93C82F462F61E070E00E94CE0461E04C
:1020800070E08C2F0E94EC048111F9CFCF9108955C
:10209000E091AD03F091AE0390818091AC03892B68
:1020A00080830895AF92BF92CF92DF92EF92FF921A
:1020B0000F931F93CF93DF9300D000D0CDB7DEB73F
:1020C0008C016B017A018091AF038333F1F45B01E2
:1020D0006801C40ED51E0C151D0509F460C00E94D0
:1020E000D70E8FE00E94E20E812F0E94E20E802F19
:1020F0000E94E20E0F5F1F4F80E00E94E20EF5018A
:1021000081935F010E944810E6CF8433F1F40E946E
:10211000D70E19830A838F2D8F778B83EC8264E02F
:1021200070E0CE0101960E94BD0EA70160E070E054
:10213000C6010E947C22E114F10421F0B701C6011E
:102140000E94BD0E0E9448102AC00E94D70E0F3F69
:10215000110509F020F419820A831B821DC017FDA6
:102160000BC019820A8333E0169507953A95E1F77B
:10217000007E08600B8310C0C80126E09695879505
:102180002A95E1F719830A83807E0115104C10F41B
:10219000806101C088618B8363E070E0C2CFC701BA
:1021A0000F900F900F900F90DF91CF911F910F9193
:1021B000FF90EF90DF90CF90BF90AF900895AF92D7
:1021C000BF92CF92DF92EF92FF920F931F93CF9324
:1021D000DF93CDB7DEB728970FB6F894DEBF0FBEFA
:1021E000CDBF8C017B016A018091AF038333E1F4A1
:1021F0005801A40EB51E0A151B0509F48BC00E94D8
:10220000D70E80EF0E94E20E812F0E94E20E802FF7
:102210000E94E20E0F5F1F4FF70181917F010E9424
:10222000E20E0E944810E7CF843321F50E94D70EBA
:1022300019830A838D2D80688B83CC8264E070E0E3
:10224000CE0101960E94BD0E87010C0D1D1DE016EA
:10225000F10669F0F70181917F010E94E20EF7CF4C
:10226000B6016D5F7F4FCE0101960E94BD0E0E94A8
:10227000481050C00E94D70E0F3F110509F020F4FE
:1022800019820A8384E01CC017FD0BC019820A83DF
:1022900033E0169507953A95E1F7007E0C600B83C5
:1022A00010C0C80126E0969587952A95E1F7198315
:1022B0000A83807E0115104C10F4846101C08C618A
:1022C0008B8326E0C216D10498F420E0822F90E0A0
:1022D0008C159D0528F6E4E0F0E0EC0FFD1FE80FFB
:1022E000F91FD701A80FB91F8C9180832F5FEECF04
:1022F00063E070E0CE0101960E94BD0E87010C0DD7
:102300001D1DF70181917F010E94E20EE016F1068A
:10231000C1F7ADCFC60128960FB6F894DEBF0FBE49
:10232000CDBFDF91CF911F910F91FF90EF90DF9084
:10233000CF90BF90AF900895CF93DF931F92CDB70A
:10234000DEB741E050E0BE016F5F7F4F80E090E07C
:102350000E94521089810F90DF91CF910895CF9301
:10236000DF931F92CDB7DEB7898341E050E0BE0115
:102370006F5F7F4F80E090E00E94DF100F90DF9151
:10238000CF910895CF93DF9380E80E94AF11C4E10D
:10239000D0E00E949C11882351F061E070E080E061
:1023A00090E00E942C182197A1F780E001C081E005
:1023B000DF91CF9108957F928F929F92AF92BF92BB
:1023C000CF92DF92EF92FF920F931F93CF93DF9301
:1023D00000D0CDB7DEB7782E8B014A01590122E03B
:1023E00030E0AE014F5F5F4F64E270E00E94E005B5
:1023F000E980FA80FE24EF24FE24E00EF11E97010E
:1024000037704091AF03072D10E0C801433311F43A
:10241000089601C04096982F8827990F990F990F19
:10242000820F931F473319F4A501B40120C0A901FD
:102430004A0D5B1D41305840B8F360E078E06B0115
:10244000C21AD30AA601B4010E94DF10A5014C19DB
:102450005D09B4016C0D7D1D8091AF03833339F5A7
:10246000085F1F4F902F990F990F990F80E00E94DE
:10247000DF10EA0CFB1CF982EA8222E030E0AE01B8
:102480004F5F5F4F64E270E0872D0E94BC040F90A5
:102490000F90DF91CF911F910F91FF90EF90DF9000
:1024A000CF90BF90AF909F908F907F900895005FE6
:1024B0001F4FD8CFEF92FF921F93CF93DF9300D09F
:1024C000CDB7DEB7182F22E030E0AE014F5F5F4F8F
:1024D00060E270E00E94E005E980FA80FE24EF24CB
:1024E000FE2422E030E0AE014F5F5F4F60E270E01B
:1024F000812F0E94E00589819A8198278927982752
:10250000E816F90611F07C01ECCF87E0189FF00186
:102510001124E554FC4FF582E482C7010F900F901F
:10252000DF91CF911F91FF90EF900895FF920F934D
:102530001F93CF93DF9300D0CDB7DEB7F82ECE0137
:1025400001960E948F1C89819A810E94F3058F2D2C
:102550000E945A128C018F2D0E940A05F82E0E94AB
:10256000F20587E1F81631F08CE1F81619F080E0F9
:1025700090E001C0C8010F900F90DF91CF911F91A3
:102580000F91FF900895AF92BF92CF92DF92EF929A
:10259000FF920F931F93CF93DF9300D0CDB7DEB799
:1025A000F82E6B018A014130584010F000E018E02D
:1025B000CE0101960E948F1C89819A810E94F305A9
:1025C0008F2D0E945A125C018F2D0E940A05E82E61
:1025D0000E94F20587E1E81619F08CE1E81204C0C8
:1025E000A016B10628F302C000E010E0CE0101966B
:1025F0000E948F1C89819A810E94F3059801A6018F
:1026000060E070E08F2D0E94DB1160E270E08F2DA2
:102610000E94381062E070E08F2D0E94EC0484FD6F
:1026200015C08F2D0E940A05811105C00E94F20578
:1026300080E090E014C00E94F205CE0101960E9455
:102640008F1C89819A810E94F305E4CF40E162E00A
:1026500070E08F2D0E94CE040E94F205C8010F90F9
:102660000F90DF91CF911F910F91FF90EF90DF902E
:10267000CF90BF90AF9008951F93CF93DF9300D07A
:10268000CDB7DEB7182FCE0101960E948F1C89812D
:102690009A810E94F305812F0E94E90E27E0129F84
:1026A000F0011124E554FC4F22813381377041E061
:1026B00050E0BE016F5F7F4F820F931F0E94521048
:1026C0000E94F20589810F900F90DF91CF911F91A9
:1026D0000895EF92FF920F931F93CF93DF9300D053
:1026E000CDB7DEB7482F87E0489F90011124F9014C
:1026F000E554FC4F7F01808191810097B9F4142F3C
:10270000CE0101960E948F1C89819A810E94F30557
:10271000812F0E94010F8C010E94F205F701868132
:102720009801281B3109C901318320830F900F9034
:10273000DF91CF911F910F91FF90EF9008954F92ED
:102740005F927F928F929F92AF92BF92CF92DF92D1
:10275000EF92FF920F931F93CF93DF9300D0CDB7EB
:10276000DEB7782E6B014A01A82EB12C27E0829F9C
:10277000C0011124AC0145545C4F7A01FA0100817B
:102780001181CE0101960E948F1C89819A810E943D
:10279000F3050815190554F4872D0E94010FF70160
:1027A00026818C01021B110911830083011511057B
:1027B00099F4872D0E940A05843109F480C088238A
:1027C00009F47DC001E010E08C3111F400E010E06C
:1027D00011950195110973C0801691060CF48401BE
:1027E00087E08A9DF0018B9DF00D1124E554FC4F8C
:1027F000E280F380C114D10459F12701F7E05F2290
:10280000872D0E94E90E840D951D2091AF0327337B
:1028100019F4A801B6011AC09801240D351D213004
:102820003840B8F320E038E0490184189508A40145
:10283000B6010E9452102601480C591C6801C818A4
:10284000D908872D0E94E90EA601B2010E945210FC
:10285000E00EF11E87E08A9DF0018B9DF00D1124A2
:10286000E554FC4FF382E28280819181801B910BC1
:10287000918380832681A801420F511D4A3F510553
:1028800010F4892BD9F487E08A9DF0018B9DF00D1F
:102890001124E554FC4F1682F982EA8222E030E0EE
:1028A000AE014F5F5F4F68E270E0872D0E94BC046D
:1028B00060E470E0872D0E94381001C046830E94BA
:1028C000F205C8010F900F90DF91CF911F910F91EA
:1028D000FF90EF90DF90CF90BF90AF909F908F9040
:1028E0007F905F904F9008951F93CF93DF9300D018
:1028F000CDB7DEB7182FCE0101960E948F1C8981BB
:102900009A810E94F30568E070E0812F0E943810E0
:102910000E94F2050F900F90DF91CF911F910895C3
:102920001F93CF93DF9300D0CDB7DEB7182FCE0122
:1029300001960E948F1C89819A810E94F30560E1B3
:1029400070E0812F0E9438100E94F2050F900F90C6
:10295000DF91CF911F9108951F93CF93DF9300D004
:10296000CDB7DEB7182FCE0101960E948F1C89814A
:102970009A810E94F305812F0E940A05182F0E9458
:10298000F205812F0F900F90DF91CF911F91089545
:10299000CF93DF9300D0CDB7DEB779836A8322E08F
:1029A00030E0AE014F5F5F4F60E170E00E94BC0419
:1029B0000F900F90DF91CF910895CF93DF9300D0C8
:1029C000CDB7DEB779836A8322E030E0AE014F5F96
:1029D0005F4F64E070E00E94BC040F900F90DF91A5
:1029E000CF910895AF92BF92CF92DF92EF92FF9274
:1029F0000F931F93CF93DF9300D000D000D0CDB7BB
:102A0000DEB7082F6B01CE0101960E948F1C8981D1
:102A10009A810E94F3059E012F5F3F4F7901590172
:102A200010E0812F0E940A05F50181935F01882340
:102A3000D1F01F5F1430A9F710E0F70181917F01F9
:102A40008D3161F0883151F08A51823038F01F5F4A
:102A5000143099F70E94F20584E063C060E170E0F1
:102A6000812F0E943810E12EF12CF701EE0FFF1F8D
:102A7000E952FC4F1182108283EE93E00197F1F747
:102A8000402F60E070E0812F0E94CE044FEF62E0A3
:102A900070E0812F0E94CE04C114D10411F0B60160
:102AA00013C0809106019091070101968115F0EC09
:102AB0009F0710F480E090EC90930701809306014B
:102AC0006091060170910701812F0E94DD1461E081
:102AD00070E0812F0E94381027E02E9DC0012F9DAD
:102AE000900D11249C0125543C4F7901F90111826C
:102AF000108222E030E0AE014B5F5F4F68E270E091
:102B0000812F0E94E0058D819E8198278927982733
:102B1000F701938382831682158214820E94F20544
:102B2000812F26960FB6F894DEBF0FBECDBFDF9182
:102B3000CF911F910F91FF90EF90DF90CF90BF90BA
:102B4000AF900895FC01538D448D252F30E0842FE4
:102B500090E0821B930B541710F0CF9608950197C5
:102B60000895FC01918D828D981761F0828DDF01AF
:102B7000A80FB11D5D968C91928D9F5F9F73928F70
:102B800090E008958FEF9FEF0895FC01918D828D65
:102B9000981731F0828DE80FF11D858D90E0089532
:102BA0008FEF9FEF0895FC01918D228D892F90E08A
:102BB000805C9F4F821B91098F739927089580E055
:102BC00090E0892B29F00E94F70E81110C940000EF
:102BD00008953FB7F8948091B7039091B803A091FE
:102BE000B903B091BA0326B5A89B05C02F3F19F0D1
:102BF0000196A11DB11D3FBFBA2FA92F982F88277D
:102C0000820F911DA11DB11DBC01CD0142E0660FD7
:102C1000771F881F991F4A95D1F70895FC0186E90F
:102C200091E091838083128213821482158213862D
:102C3000128648EE53E060E070E04487558766876F
:102C4000778728E431E031872087978B868B108E39
:102C5000118E128E138E84E080A308958F929F921E
:102C6000AF92BF92CF92DF92EF92FF921F93CF93DA
:102C7000DF93CDB7DEB72C970FB6F894DEBF0FBE4B
:102C8000CDBF2091AF03222309F4B9C06B017C01B1
:102C9000CE0101960E948F1C89819A810E94F305C2
:102CA0005E0127E0A20EB11C450110E0812F0E94B9
:102CB0000A05F40181934F018823C9F01F5F143086
:102CC000A9F710E0F50181915F018D3159F088314C
:102CD00049F08A51823030F01F5F143099F70E941A
:102CE000F2058DC060E170E0812F0E943810A12EA6
:102CF000B12CF501EE0FFF1FE952FC4F118210823B
:102D000083EE93E00197F1F742E860E070E0812FF5
:102D10000E94CE044FEF62E070E0812F0E94CE044B
:102D2000C114D10411F0B60113C080910601909135
:102D3000070101968115F0EC9F0710F480E090ECFC
:102D4000909307018093060160910601709107013D
:102D5000812F0E94DD1486E0EEE3F1E0DE011196A2
:102D600001900D928A95E1F7F70183818F778C832B
:102D700084818D8385818E83A7014E5F5F4F24E020
:102D800030E06CE070E0812F0E94BC04B601812F1E
:102D90000E94C81426E030E0AE014F5F5F4F66E04E
:102DA00070E0812F0E94BC0461E070E0812F0E94DE
:102DB000381027E02A9DC0012B9D900D11249C0105
:102DC00025543C4F7901F9011182108222E030E054
:102DD000AE01455F5F4F68E270E0812F0E94E00521
:102DE0008B859C85982789279827F7019383828371
:102DF0001682158214820E94F205812F01C084E0A0
:102E00002C960FB6F894DEBF0FBECDBFDF91CF91E9
:102E10001F91FF90EF90DF90CF90BF90AF909F9069
:102E20008F900895FC01848DDF01A80FB11DA35A76
:102E3000BF4F2C91848D90E001968F739927848FDA
:102E4000A689B7892C93A089B1898C9183708064FD
:102E50008C93938D848D981306C00288F389E02D9E
:102E600080818F7D80830895EF92FF920F931F934F
:102E7000CF93DF93EC0181E0888F9B8D8C8D98132D
:102E800005C0E889F989808185FD26C0F62E0B8D65
:102E900010E00F5F1F4F0F731127E02E8C8DE8128B
:102EA0000CC00FB607FCFACFE889F989808185FF4D
:102EB000F5CFCE010E941217F1CF8B8DFE01E80FE6
:102EC000F11DE35AFF4FF0829FB7F8940B8FEA8908
:102ED000FB89808180620AC09FB7F894EE89FF89E0
:102EE0006083E889F98980818370806480839FBFD3
:102EF00081E090E0DF91CF911F910F91FF90EF90D3
:102F00000895CF93DF93EC01888D8823C9F0EA8977
:102F1000FB89808185FD05C0A889B9898C9186FDD2
:102F20000FC00FB607FCF5CF808185FFF2CFA889CF
:102F3000B9898C9185FFEDCFCE010E941217E7CFA2
:102F4000DF91CF91089590E0FC01EC55FF4F249163
:102F5000FC01E458FF4F3491FC01E057FF4FE4912E
:102F6000EE2309F43CC0222339F1233091F038F4E8
:102F70002130A9F0223001F584B58F7D12C02730B1
:102F800091F02830A1F02430B9F4809180008F7D39
:102F900003C0809180008F77809380000DC084B53E
:102FA0008F7784BD09C08091B0008F7703C0809176
:102FB000B0008F7D8093B000F0E0EE0FFF1FE85966
:102FC000FF4FA591B4919FB7F894611104C08C9103
:102FD0003095382302C0EC913E2B3C939FBF08955F
:102FE000CF93DF9390E0FC01E458FF4F2491FC0164
:102FF000E057FF4F8491882361F190E0880F991F7B
:10300000FC01EE58FF4FC591D491FC01E859FF4FE8
:10301000A591B491611109C09FB7F894888120955A
:1030200082238883EC912E230BC0623061F49FB71A
:10303000F8948881322F309583238883EC912E2B4E
:103040002C939FBF06C08FB7F894E8812E2B28835E
:103050008FBFDF91CF9108958F929F92AF92BF92D1
:10306000CF92DF92EF92FF926B017C010E94E915F3
:103070004B015C01C114D104E104F104F1F00E94A0
:10308000E915DC01CB0188199909AA09BB09883E19
:103090009340A105B10570F321E0C21AD108E108FF
:1030A000F10888EE880E83E0981EA11CB11CC114A3
:1030B000D104E104F10419F7DDCFFF90EF90DF9028
:1030C000CF90BF90AF909F908F9008952FB7F894B6
:1030D0006091B3037091B4038091B5039091B603EE
:1030E0002FBF08954F925F926F927F928F929F921F
:1030F000AF92BF92CF92DF92EF92FF920F931F9306
:10310000CF93DF93CDB7DEB763970FB6F894DEBFEA
:103110000FBECDBF7C015B013A01FB0120E080E0E6
:1031200090E06AE03191332309F140ED430F4A30DA
:1031300080F4689FA001699F500D1124CA01C097B7
:10314000830F911D37FD9A958F3F910559F350F3E9
:1031500013C03E3289F4233079F0D301A20FB11DA0
:1031600012968C932F5F80E090E0DCCF233021F427
:10317000F301858381E021C0F7014281538164819D
:1031800075818091970490919804A0919904B091D1
:103190009A04481759076A077B0709F491C10E94EE
:1031A00066188701085F1F4F6F7077277C5FC80123
:1031B0000E94FD02813019F080E090E0D9C186E9DB
:1031C00091E09A838983F70182819381A481B581FB
:1031D0008B839C83AD83BE8345E350E0BE016F5F6C
:1031E0007F4FC8010E947F06892B19F4C12CD12C76
:1031F00062C10E946618F7017783668342E050E05F
:10320000B7016A5F7F4FC8010E94F60581E090E038
:103210009A83898342E050E0BE016F5F7F4FC8010F
:103220000E94F60580E091E09A83898342E050E0B5
:10323000BE016F5F7F4FC8010E94F6051A82198296
:1032400042E050E0BE016F5F7F4FC8010E94F6056B
:1032500042E050E0BE016F5F7F4FC8010E94F6055B
:1032600042E050E0BE016F5F7F4FC8010E94F6054B
:103270004501F5018081882301F164015601F601C1
:1032800081912F01882321F08E3211F06201F6CF57
:10329000C818D9081C141D0474F4CD8641E050E010
:1032A000BE01635F7F4FC8010E94F605A601B4010D
:1032B000C8010E94F6054201DCCF1D8641E050E0C6
:1032C000BE01635F7F4FC8010E94F605C12CDD245B
:1032D000D394DA82C98242E050E0BE016F5F7F4F33
:1032E000C8010E94F605DA82C98242E050E0BE01C0
:1032F0006F5F7F4FC8010E94F605C8010E943D061E
:10330000892B09F473CFE3E0AE2EB12C230122E028
:10331000420E511C0E9466183B014C01C8010E94DC
:103320003A0218161906A4F00E946618DC01CB01B7
:1033300086199709A809B90989389341A105B105EA
:10334000D0F462E370E080E090E00E942C18E6CFB9
:10335000F7014281538164817581808D918DA28DA9
:10336000B38D481759076A077B0749F4848D958DFB
:10337000C59729F409C0CC24CA94DC2C93C05EEF15
:10338000C52EDD24DA948EC0F70181A192A10C979D
:103390000CF4E9C04CE050E0BE016F5F7F4FC80104
:1033A0000E94C6018B819C819827892798279A8B38
:1033B000898BF7014681578129813A81421753074A
:1033C00009F0C2C097FFC0C08F709270892B09F0BE
:1033D000C0C06F80788476246724762461147104D9
:1033E00009F4BCC0C12CD12C8D819E8198278927DE
:1033F0009827C816D90608F466C0812C912C41E0A4
:1034000050E0BE016D5E7F4FC8010E94C6014B892E
:10341000842F807C09F076C0442331F050E060E0D6
:1034200070E0C8010E94C6018B898111E8CF42E09B
:1034300050E0BE01615F7F4FC8010E94C60142E0BB
:1034400050E0BE01635F7F4FC8010E94C60144E0A7
:1034500050E060E070E0C8010E94C60142E050E028
:10346000BE016F5E7F4FC8010E94C6018F8598899B
:1034700049895A898115914009F04DC0CD84DE8477
:10348000DC24CD24DC2481E0C816D10409F043C03B
:103490004115544009F053C044E050E0B201C80166
:1034A0000E94C60121E0A21AB10829F0FFEFCF1651
:1034B000DF0609F42FCFC8010E948F01C60158C052
:1034C0008EEF9FEF55C041E050E0BE01635F7F4F3C
:1034D000C8010E94C6014D85442331F050E060E0F0
:1034E00070E0C8010E94C6018D858111ECCF44E0D7
:1034F00050E060E070E0C8010E94C601FFEFCF1A03
:10350000DF0A72CF41E050E060E070E0C8010E9445
:10351000C6011B8A89CF54274527542760E070E0F5
:10352000C8010E94C601FFEF8F1A9F0A6814790430
:1035300009F065CF96EFC92EDD24DA94B3CF77EF8B
:10354000C72EDD24DA94AECF4CEFC42EDD24DA94FE
:10355000A9CF3BEFC32EDD24DA94A4CF2AEFC22EED
:10356000DD24DA949FCF8DEFC82EDD24DA949ACF34
:1035700063960FB6F894DEBF0FBECDBFDF91CF913B
:103580001F910F91FF90EF90DF90CF90BF90AF9081
:103590009F908F907F906F905F904F9008950895C7
:1035A0000E946A221F920F920FB60F9211242F933E
:1035B0003F938F939F93AF93BF938091B303909169
:1035C000B403A091B503B091B6033091F10323E0A9
:1035D000230F2D3720F40196A11DB11D05C026E84B
:1035E000230F0296A11DB11D2093F1038093B30315
:1035F0009093B403A093B503B093B6038091B7033F
:103600009091B803A091B903B091BA030196A11D9E
:10361000B11D8093B7039093B803A093B903B093FF
:10362000BA03BF91AF919F918F913F912F910F90CE
:103630000FBE0F901F9018951F920F920FB60F920A
:1036400011242F933F934F935F936F937F938F93A7
:103650009F93AF93BF93EF93FF93E0910A01F09193
:103660000B010995FF91EF91BF91AF919F918F91C0
:103670007F916F915F914F913F912F910F900FBE6E
:103680000F901F9018951F920F920FB60F92112452
:103690002F933F934F935F936F937F938F939F935A
:1036A000AF93BF93EF93FF93E0910801F09109016D
:1036B0000995FF91EF91BF91AF919F918F917F916C
:1036C0006F915F914F913F912F910F900FBE0F908F
:1036D0001F9018958F929F92AF92BF92EF92FF9298
:1036E0000F931F93CF93DF93CDB7DEB7A1970FB69C
:1036F000F894DEBF0FBECDBF7C01FA01CB0119A249
:10370000223008F42AE08E010F5D1F4F822E912C8B
:10371000A12CB12CBF01A50194010E94F01FF90159
:10372000CA01015011096A3014F4605D01C0695C7E
:10373000D8016C93232B242B252B61F7B801C701EB
:103740000E94820FA1960FB6F894DEBF0FBECDBFC8
:10375000DF91CF911F910F91FF90EF90BF90AF90AD
:103760009F908F9008957F928F929F92AF92BF9279
:10377000CF92DF92EF92FF920F931F93CF93DF933D
:103780008C016A017B01722E9A01AB01C701B6015F
:103790000E945822882319F064EC71E027C046018A
:1037A0005701E894B7F82FEF3FEF4FE75FE7C50108
:1037B000B4010E94582281110DC02FEF3FEF4FE757
:1037C0005FE7C501B4010E948E2018161CF468EC56
:1037D00071E00CC02FEF3FEF4FE75FE4C701B60188
:1037E0000E94E621181694F46CEC71E0C801DF9198
:1037F000CF911F910F91FF90EF90DF90CF90BF90EE
:10380000AF909F908F907F900C94820F2FEF3FEF9F
:103810004FE75FECC701B6010E948E2087FDE4CF21
:1038200020E030E0A901C701B6010E948E2087FF89
:103830000AC06DE2C8010E94350FEC01F7FAF0945E
:10384000F7F8F09402C0C0E0D0E0B12C60E070E086
:1038500080E09FE37B1441F020E030E040E251E45F
:103860000E949320B394F6CFA70196010E942220D4
:103870006B017C010E9405214B015C012AE0AB0138
:10388000BC01C8010E946A1BC80FD91F7720C1F173
:10389000C501B4010E9434219B01AC01C701B601EE
:1038A0000E9421206B017C016EE2C8010E94350F4D
:1038B000C80FD91F20E030E040E251E4C701B60153
:1038C0000E94EB214B015C010E9405216B01E12C60
:1038D000F12C2AE0B701A601C8010E946A1BC80F9B
:1038E000D91FC701B6010E9434219B01AC01C5015B
:1038F000B4010E9421206B017C017A947110DACF0F
:10390000CE01DF91CF911F910F91FF90EF90DF904B
:10391000CF90BF90AF909F908F907F90089520E5BB
:10392000FC01208321E021830895CF93DF93CDB75D
:10393000DEB72F970FB6F894DEBF0FBECDBF7894D9
:1039400084B5826084BD84B5816084BD85B58260A4
:1039500085BD85B5816085BD80916E008160809355
:103960006E001092810080918100826080938100BE
:1039700080918100816080938100809180008160CE
:10398000809380008091B10084608093B100809129
:10399000B00081608093B00080917A008460809351
:1039A0007A0080917A00826080937A0080917A0018
:1039B000816080937A0080917A00806880937A0099
:1039C0001092C1001092E7031092E8031092E903ED
:1039D0001092EA031092E3031092E4031092E503BD
:1039E0001092E6031092E2031092E10361E084E09A
:1039F0000E94F01761E084E00E94A31786E991E03D
:103A00009A8389838091A3049091A404A091A50432
:103A1000B091A6048B839C83AD83BE83CE010196B7
:103A20000E945A098BE994E00E94C60661E088E092
:103A30000E94F01760E083E00E94F01760E082E0EF
:103A40000E94F01780E394E090930B0180930A01A9
:103A500080916900837F886080936900E99A8AEF8A
:103A600093E09093090180930801809169008C7F15
:103A7000826080936900E89A80E1809381001092CF
:103A8000800084E294EF909387008093860083E126
:103A90008093810085E191E09093E0038093DF03C0
:103AA00081E080936F00789482E4F82E4091EB03DC
:103AB0005091EC036091ED037091EE0322E082EFF0
:103AC00093E00E94B31B60ED71E082EF93E00E94EF
:103AD000AB0F6091EF037091F00382EF93E00E94CF
:103AE000350B66ED71E082EF93E00E94970F6BE972
:103AF00074E0CE0101960E940E058D85843008F099
:103B0000F9C011E0CE0101960E946403882309F4F4
:103B1000F1C0CE0101960E943102892B99F3CE01AA
:103B200001960E940E02082F682F82EF93E00E94F8
:103B300034170A3009F0D9C0112319F361E088E085
:103B40000E94A31768ED71E0CE0101960E94970FC5
:103B500068EE71E0CE0101960E94970F60E072E07E
:103B6000CE0101960E94970F62E172E0CE010196AC
:103B70000E94970F61EC71E0CE0101960E94820FC6
:103B80006EE172E0CE0101960E94970F6EE272E044
:103B9000CE0101960E94970F61E088E00E94A31772
:103BA00065E372E0CE0101960E94AB0F64E772E01C
:103BB000CE0101960E94970F62E872E0CE01019655
:103BC0000E94AB0F6FE972E0CE0101960E94970F41
:103BD00068EA72E0CE0101960E94AB0F65EC72E0DC
:103BE000CE0101960E94970F6FEC72E0CE01019614
:103BF0000E94AB0F4091EB035091EC036091ED03F9
:103C00007091EE0322E0CE0101960E94B31B6EEE8E
:103C100072E0CE0101960E94970FF0927C00809195
:103C20007A00806480937A0080917A0086FDFCCFD0
:103C3000809178002091790090E0922B9093F0038E
:103C40008093EF0369EF72E0CE0101960E94AB0F03
:103C50006091EF037091F003CE0101960E94350B45
:103C600067E173E0CE0101960E94970F64E273E072
:103C7000CE0101960E94AB0F61E473E0CE01019684
:103C80000E94970F6BE473E0CE0101960E94AB0F88
:103C900022E040E050E0BA01CE0101960E94B31B41
:103CA00064E772E0CE0101960E94970F69E673E027
:103CB000CE0101960E94AB0F22E040E050E0BA0135
:103CC000CE0101960E94B31B67E873E0CE01019616
:103CD0000E94970F6CE973E0CE0101960E94970F46
:103CE00060E088E00E94A31705C00D3009F40ACFF8
:103CF00010E008CF61E070E080E090E00E942C18B6
:103D0000CE0101960E9466040E94DF15CFCEE2EF3D
:103D1000F3E01382128288EE93E0A0E0B0E08483A7
:103D20009583A683B78384E891E09183808385ECB3
:103D300090E09587848784EC90E09787868780EC75
:103D400090E0918B808B81EC90E0938B828B82EC66
:103D500090E0958B848B86EC90E0978B868B118E10
:103D6000128E138E148EE7EAF4E086E991E09183D7
:103D700080831282138214821582EDEAF4E091832B
:103D800080831282138214821582E3EBF4E0918324
:103D900080831282138214821582E9EBF4E091830E
:103DA00080831282138214821582EFEBF4E09183F8
:103DB00080831282138214821582E5ECF4E09183F1
:103DC00080831282138214821582EFE8F4E09183DB
:103DD00080831282138214821582E5E9F4E09183D4
:103DE00080831282138214821582EBECF4E09183BB
:103DF00080831282138214821582E1EDF4E09183B4
:103E000080831282138214821582E1EAF4E09183A6
:103E100080838AE082831382148286E08583EBE9C3
:103E2000F4E01382128282EA91E09183808380E53C
:103E300090E09583848308958F929F92AF92BF9272
:103E4000CF92DF92EF92FF92CF93DF93EC016881E4
:103E500079818A819B81611571058105910521F424
:103E600064E279ED8BE597E02DE133EF41E050E03E
:103E70000E94BE1F49015A019B01AC01A7EAB1E4AF
:103E80000E94DD1F6B017C01ACEEB4EFA501940133
:103E90000E94EB1FDC01CB018C0D9D1DAE1DBF1DD3
:103EA000B7FF03C00197A109B04888839983AA830B
:103EB000BB83BC01CD019F77DF91CF91FF90EF9045
:103EC000DF90CF90BF90AF909F908F9008958F928A
:103ED0009F92AF92BF92CF92DF92EF92FF9260914A
:103EE0000C0170910D0180910E0190910F016115EF
:103EF00071058105910521F464E279ED8BE597E088
:103F00002DE133EF41E050E00E94BE1F49015A010C
:103F10009B01AC01A7EAB1E40E94DD1F6B017C01AB
:103F2000ACEEB4EFA50194010E94EB1FDC01CB01C4
:103F30008C0D9D1DAE1DBF1DB7FF03C00197A109CC
:103F4000B04880930C0190930D01A0930E01B093A3
:103F50000F01BC01CD019F77FF90EF90DF90CF90D4
:103F6000BF90AF909F908F90089560930C017093D5
:103F70000D0180930E0190930F010895052E97FB7C
:103F80001EF400940E94D51F57FD07D00E94F01F19
:103F900007FC03D04EF40C94D51F509540953095F6
:103FA00021953F4F4F4F5F4F0895909580957095A5
:103FB00061957F4F8F4F9F4F08950E941220A59FBC
:103FC000900DB49F900DA49F800D911D1124089514
:103FD000B7FF0C94DD1F0E94DD1F821B930B089519
:103FE000A1E21A2EAA1BBB1BFD010DC0AA1FBB1FFD
:103FF000EE1FFF1FA217B307E407F50720F0A21B6F
:10400000B30BE40BF50B661F771F881F991F1A94DB
:1040100069F760957095809590959B01AC01BD0105
:10402000CF010895A29FB001B39FC001A39F700D5F
:10403000811D1124911DB29F700D811D1124911DB0
:1040400008955058BB27AA270E9439200C94AC2110
:104050000E949E2138F00E94A52120F039F49F3F54
:1040600019F426F40C949B210EF4E095E7FB0C94D4
:104070009521E92F0E94BD2158F3BA1762077307F3
:104080008407950720F079F4A6F50C94DF210EF44F
:10409000E0950B2EBA2FA02D0B01B90190010C0158
:1040A000CA01A0011124FF27591B99F0593F50F470
:1040B000503E68F11A16F040A22F232F342F4427C8
:1040C000585FF3CF469537952795A795F0405395C0
:1040D000C9F77EF41F16BA0B620B730B840BBAF090
:1040E0009150A1F0FF0FBB1F661F771F881FC2F7FB
:1040F0000EC0BA0F621F731F841F48F4879577950F
:104100006795B795F7959E3F08F0B0CF9395880FC8
:1041100008F09927EE0F9795879508950E947121D1
:1041200008F481E008950E94A7200C94AC210E941D
:10413000A52158F00E949E2140F029F45F3F29F00C
:104140000C94952151110C94E0210C949B210E9418
:10415000BD2168F39923B1F3552391F3951B550BBA
:10416000BB27AA2762177307840738F09F5F5F4F4A
:10417000220F331F441FAA1FA9F335D00E2E3AF089
:10418000E0E832D091505040E695001CCAF72BD0A1
:10419000FE2F29D0660F771F881FBB1F26173707F2
:1041A0004807AB07B0E809F0BB0B802DBF01FF2724
:1041B00093585F4F3AF09E3F510578F00C9495214B
:1041C0000C94E0215F3FE4F3983ED4F38695779515
:1041D0006795B795F7959F5FC9F7880F911D9695DD
:1041E000879597F90895E1E0660F771F881FBB1F39
:1041F000621773078407BA0720F0621B730B840BE6
:10420000BA0BEE1F88F7E09508950E94C52188F04B
:104210009F5798F0B92F9927B751B0F0E1F0660F8A
:10422000771F881F991F1AF0BA95C9F714C0B130CB
:1042300091F00E94DF21B1E008950C94DF21672FF7
:10424000782F8827B85F39F0B93FCCF386957795FA
:104250006795B395D9F73EF49095809570956195E3
:104260007F4F8F4F9F4F0895E89409C097FB3EF40E
:1042700090958095709561957F4F8F4F9F4F9923B3
:10428000A9F0F92F96E9BB279395F6958795779531
:104290006795B795F111F8CFFAF4BB0F11F460FFF1
:1042A0001BC06F5F7F4F8F4F9F4F16C0882311F049
:1042B00096E911C0772321F09EE8872F762F05C05D
:1042C000662371F096E8862F70E060E02AF09A95F8
:1042D000660F771F881FDAF7880F9695879597F9ED
:1042E0000895990F0008550FAA0BE0E8FEEF161687
:1042F0001706E807F907C0F012161306E407F507DA
:1043000098F0621B730B840B950B39F40A2661F04D
:10431000232B242B252B21F408950A2609F4A140F0
:10432000A6958FEF811D811D089597F99F6780E8FD
:1043300070E060E008959FEF80EC089500240A94F7
:104340001616170618060906089500240A94121670
:104350001306140605060895092E0394000C11F4A3
:10436000882352F0BB0F40F4BF2B11F460FF04C050
:104370006F5F7F4F8F4F9F4F089557FD9058440FA9
:10438000551F59F05F3F71F04795880F97FB991FB4
:1043900061F09F3F79F08795089512161306140671
:1043A000551FF2CF4695F1DF08C0161617061806FE
:1043B000991FF1CF86957105610508940895E894D9
:1043C000BB2766277727CB0197F908950E947121B3
:1043D00008F48FEF08950E94FE210C94AC210E94F6
:1043E0009E2138F00E94A52120F0952311F00C9415
:1043F00095210C949B2111240C94E0210E94BD2155
:1044000070F3959FC1F3950F50E0551F629FF00127
:10441000729FBB27F00DB11D639FAA27F00DB11D40
:10442000AA1F649F6627B00DA11D661F829F2227C9
:10443000B00DA11D621F739FB00DA11D621F839F50
:10444000A00D611D221F749F3327A00D611D231F26
:10445000849F600D211D822F762F6A2F11249F5774
:1044600050409AF0F1F088234AF0EE0FFF1FBB1F77
:10447000661F771F881F91505040A9F79E3F510536
:1044800080F00C9495210C94E0215F3FE4F3983E7A
:10449000D4F3869577956795B795F795E7959F5FE0
:1044A000C1F7FE2B880F911D9695879597F9089572
:1044B0000E947121880B990B089569279627692717
:1044C0007827872778270895EE0FFF1F0590F4912E
:1044D000E02D099481E090E0F8940C948A22FB018D
:1044E000DC0104C08D910190801921F441505040AD
:1044F000C8F7881B990B0895DC0101C06D934150EA
:104500005040E0F70895FB01DC0101900D9200207E
:08451000E1F70895F894FFCFD4
:10451800DEADBEEFFEED00C0CF1ACF1A01000000DD
:1045280000000000C3002103B3049E0431020E0200
:10453800AC0161078703280266046403EC00E90004
:10454800E700B800DD003307FE070507D9000100C2
:104558005E000000000000008800F6054A018700A0
:104568009E00E5019D01FD024D018F017F06960227
:104578003D063A02C6010C01FC00F800F4000000F8
:104588000000D01A930E4A014901D01AD01AD01A45
:10459800000000003417930EA2158117D315B1152A
:1045A800C515000000003C0F00000000D01A0000F4
:1045B8000000A2008E054A014901C606400300001A
:1045C8000000D01A930E4A01490157495A6E657482
:1045D800000D0A006E616E00696E66006F766600F7
:1045E800206D706809002A00485454502F312E312C
:1045F80020323030204F4B00436F6E74656E742D3F
:10460800547970653A20746578742F68746D6C00FD
:10461800436F6E6E656374696F6E3A20636C6F7377
:104628006500526566726573683A203130003C2136
:10463800444F43545950452048544D4C3E003C6823
:10464800746D6C3E003C7370616E207374796C6598
:104658003D22666F6E742D73697A653A2032367022
:1046680078223B3E3C62723E266E6273703B266E39
:104678006273703B54656D70657261747572652004
:104688006973200020266465673B433C6272202FD3
:104698003E003C62723E266E6273703B266E627309
:1046A800703B48756D6964697479206973200020CE
:1046B800253C6272202F3E003C62723E266E627379
:1046C800703B266E6273703B5072657373757265CA
:1046D8002069732000206D623C6272202F3E003CEE
:1046E80062723E266E6273703B266E6273703B5731
:1046F800696E642053706565642069732000206DBD
:1047080070683C6272202F3E003C62723E266E62E8
:1047180073703B266E6273703B446972656374699B
:104728006F6E206973200020266465673B3C6272C7
:10473800202F3E003C62723E266E6273703B266EEE
:104748006273703B5261696E66616C6C206973209C
:1047580000206D6D3C6272202F3E003C62723E2646
:104768006E6273703B266E6273703B4D696E696D45
:10477800756D2054656D7020003C62723E266E6235
:1047880073703B266E6273703B4D6178696D756D11
:104798002054656D70200020266465673B433C62A9
:1047A80072202F3E3C2F7370616E3E003C2F687460
:0447B8006D6C3E00E6
:00000001FF
